:100000000C9462000C948A000C948A000C948A0070
:100010000C948A000C948A000C948A000C948A0038
:100020000C948A000C948A000C948A000C948A0028
:100030000C948A000C948A000C948A000C948A0018
:100040000C9495140C948A000C943E150C9418157D
:100050000C948A000C948A000C948A000C948A00F8
:100060000C948A000C948A000000000024002700F1
:100070002A0000000000250028002B0004040404CE
:100080000404040402020202020203030303030342
:10009000010204081020408001020408102001021F
:1000A00004081020000000080002010000030407FB
:1000B00000000000000000000000000023002600F7
:1000C0002900701511241FBECFEFD8E0DEBFCDBFD1
:1000D00024E0ACE0B3E001C01D92A637B207E1F71F
:1000E00013E0A0E0B1E0ECEBF8E302C005900D9264
:1000F000AC30B107D9F710E0C2E6D0E004C02197D8
:10010000FE010E94531AC136D107C9F70E94771623
:100110000C945C1C0C940000009769F0FC010190A9
:100120000020E9F73197AF01481B590BBC018DE066
:1001300093E00C94791380E090E00895CF93DF93DF
:100140000E948C00EC0182E891E00E948C008C0FF0
:100150009D1FDF91CF910895DF92EF92FF920F9351
:100160001F93CF93DF93EC01E62EF12C85E0689F7F
:10017000B0011124FE01E60FF71F8085182F1770BC
:1001800086FF17C001E085E0D82EFE01D09EE00D6D
:10019000F11D1124808586958695869587701817A0
:1001A000F9F00F5F003189F78D81811302C0115082
:1001B0001D8385E08E9DF0018F9DF00D1124EC0FC5
:1001C000FD1F108681E0818712862296D783C68321
:1001D000DF91CF911F910F91FF90EF90DF900895E5
:1001E000602FCE010E94AC00D0CFEF92FF920F9310
:1001F0001F93CF93DF93EC01FB0104811581E08015
:10020000F180E114F104C9F001151105C9F08C81E8
:100210009D81080F191FB801CE010E94F114882397
:1002200061F0288139818C819D81B701820F931FF4
:100230000E94551C1D830C8303C0CE010E94DF1455
:10024000CE01DF91CF911F910F91FF90EF90089514
:10025000CF92DF92EF92FF920F931F93CF93DF9392
:10026000CDB7DEB729970FB6F894DEBF0FBECDBF6E
:100270008C01862FF801118210821382128215825E
:1002800014824AE09E012F5F3F4F6901B90190E05F
:100290000E94CA19F60101900020E9F731977F0109
:1002A000EC18FD08B701C8010E94F114811104C0C7
:1002B000C8010E94DF1408C0F801F582E482B6018B
:1002C000808191810E94551C29960FB6F894DEBF5B
:1002D0000FBECDBFDF91CF911F910F91FF90EF9097
:1002E000DF90CF900895833081F028F4813099F029
:1002F0008230A1F008958730A9F08830B9F08430B9
:10030000D1F4809180008F7D03C0809180008F7731
:1003100080938000089584B58F7702C084B58F7D67
:1003200084BD08958091B0008F7703C08091B000A4
:100330008F7D8093B00008951F93CF93DF93282F74
:1003400030E0F901EC55FF4F8491F901E057FF4F80
:10035000D491F901E458FF4FC491CC23C1F0162F7A
:1003600081110E947301EC2FF0E0EE0FFF1FEE5899
:10037000FF4FA591B4919FB7F894111104C08C91CF
:10038000D095D82302C0EC91DE2BDC939FBFDF9188
:10039000CF911F910895CF93DF9390E0FC01E05738
:1003A000FF4F2491FC01E458FF4F8491882361F1B1
:1003B00090E0880F991FFC01E859FF4FC591D49137
:1003C000FC01EE58FF4FA591B491611109C09FB790
:1003D000F8948881209582238883EC912E230BC08A
:1003E000623061F49FB7F8948881322F309583236F
:1003F0008883EC912E2B2C939FBF06C08FB7F89467
:10040000E8812E2B28838FBFDF91CF9108952F9203
:100410003F924F925F926F927F928F929F92AF9294
:10042000BF92CF92DF92EF92FF920F931F93CF93E1
:10043000DF9300D000D0CDB7DEB73C017B012A01AD
:100440006901F901A080B180FB01F181F983F90113
:1004500011821082FB01828181FD02C060E101C036
:1004600060E288EE0E943E0BAA829201F701408171
:1004700060E0C3010E94F112382EF6E08F1315C020
:1004800088EF0E940E0B8295817091E08927F70119
:10049000928180FB91F9928391FD02C060E101C0DD
:1004A00060E288EE0E943E0BE0CF811162C088ECD2
:1004B0000E940E0B82FF5BC080E30E940E0B282E71
:1004C00090E0A816B90608F42A80F601808191818F
:1004D0009501281B390B3C832B8337FF02C01C82FC
:1004E0001B82822C912C8B819C818816990614F496
:1004F0009C828B8280E591E00E94EE120E94811224
:1005000088E00E94E7124B815C8160E070E0C801E6
:100510000E944E1CEB81FC81309721F0BF01C80185
:100520000E94240B2B813C81020F131F0E94831217
:100530000E94E61264E088EC0E943E0BF601808186
:100540009181880E991E91828082F9812F1620F068
:100550008A149B0408F489CF88EF0E940E0B8295C1
:100560008170F701928180FB91F9928302C080EF44
:10057000382E832D0F900F900F900F90DF91CF9119
:100580001F910F91FF90EF90DF90CF90BF90AF90B1
:100590009F908F907F906F905F904F903F902F90A3
:1005A00008956F927F928F929F92AF92BF92CF9257
:1005B000DF92EF92FF920F931F93CF93DF93EC01A3
:1005C000B62EA42E79010E94FC076C01009709F455
:1005D0004DC0DC01ED91FC911197309709F448C0B2
:1005E00013969C9180E0981731F02081A21629F093
:1005F00033968F5FF8CFE0E0F0E0D701ED93FC9306
:100600003097C1F182818695869590E08031910581
:1006100014F08FE090E041E050E060E070E03A01DB
:100620004B0104C0660C771C881C991C8A95D2F774
:10063000D401C3010197D8018D939C936B2D80EE5B
:100640000E943E0B88ED0E940E0BF60194819923C7
:1006500031F0CA58DF4F68816260682B02C0682F92
:10066000697F88ED0E943E0B80E005C086ED03C0E7
:1006700087ED01C08BEDDF91CF911F910F91FF901E
:10068000EF90DF90CF90BF90AF909F908F907F9032
:100690006F900895AF92BF92CF92DF92EF92FF9248
:1006A0000F931F93CF93DF9300D000D0CDB7DEB769
:1006B0007C01690158011C821B821A8219828E01F9
:1006C0000F5F1F4F9E012D5F3F4F0E94D10281118E
:1006D00009C049815A816B817C8185019601C701DE
:1006E0000E9407020F900F900F900F90DF91CF9113
:1006F0001F910F91FF90EF90DF90CF90BF90AF9040
:1007000008952F923F924F925F926F927F928F92B5
:100710009F92AF92BF92CF92DF92EF92FF920F9390
:100720001F93CF93DF93CDB7DEB767970FB6F894DB
:10073000DEBF0FBECDBF3C01342E222E402E5E2CDC
:10074000ECA4FDA4188A1F861E861D868E01035FF9
:100750001F4F9E01215F3F4F40E00E94D102811157
:1007600056C139822A824B825C82DE82CD82B88673
:10077000AF82AE014F5F5F4F68E080E20E94E50A02
:100780002D853E8540E060E1C3010E94F112582EA4
:100790008111F3C0232D2078322EE114F10409F4E5
:1007A000DBC00F851889222309F452C0D8011296A4
:1007B0008C911297826012968C9365014424439425
:1007C000C114D10409F4CDC09C868B864D855E850D
:1007D0006F85788987019E01255F3F4FC3010E9485
:1007E0000702582EB6E08B130FC00F85188988EFCB
:1007F0000E940E0B85FB882780F98425F8019281E1
:1008000080FB91F99283DCCF8111B7C02EA53FA563
:1008100021153105A1F0D901ED91FC9111970190BD
:10082000F081E02DC5018C199D099A8789876B8518
:100830007C859E01275F3F4FA701CD0109958B85E0
:100840009C85C81AD90A8815990508F0B9CF84C0C3
:10085000F80182818160828321808FEF820D803454
:1008600008F089C02D853E853A8B298B0E9489141A
:100870009B01AC0128573C4E4F4F5F4F2B8B3C8B5D
:100880004D8B5E8BD80112968C9180FD02C060E486
:1008900001C060E888EE0E943E0B312C8114910467
:1008A00009F44CC051018214930408F45401AF8A36
:1008B000A7016A2D80E10E94E50A6A2D88E30E9463
:1008C0003E0BF8016081606280EF0E943E0B88EC75
:1008D0000E940E0B87FFFBCF60E888EC0E943E0B66
:1008E00088EF0E940E0B8F70582EC12CD12C412CFA
:1008F000552009F483C00E948914DC01CB012B89A7
:100900003C894D895E89821B930BA40BB50BB7FF05
:1009100075C0F6E05F1699F12EE0521609F469C031
:1009200034E053120BC03FEFC31AD30A49895A89E6
:1009300041155105E1F14C155D05C9F588EF0E949F
:100940000E0B85FB882780F9F801928180FB90F9D6
:100950009283511012C057C02D853E85311005C0BD
:1009600054C051100AC02D853E8560EA40E0C301A5
:100970000E94F1124CC08AED4AC0852D48C088EF14
:100980000E940E0B85FB882780F991E08927D8010A
:1009900012969C91129780FB90F912969C9390FD71
:1009A00002C060E401C060E888EE0E943E0B60E097
:1009B00088E30E943E0BF701608180E10E943E0BBC
:1009C0006F8988E30E943E0BD8016C91606280EFD2
:1009D0000E943E0B88EC0E940E0B87FFFBCF60E865
:1009E00088EC0E943E0B88EF0E940E0B8F70582EF1
:1009F0007FCF439453E04512DACFA0CF8A189B08EB
:100A0000EA0CFB1C4BCF2D853E8560E8AFCF679687
:100A10000FB6F894DEBF0FBECDBFDF91CF911F910F
:100A20000F91FF90EF90DF90CF90BF90AF909F908D
:100A30008F907F906F905F904F903F902F90089590
:100A40008F929F92AF92BF92CF92DF92EF920F93CD
:100A5000CF931F921F921F921F92812C912CA12C39
:100A6000B12CC12CD12CE12C062F25E040E060E018
:100A70000E948103C82F6CE271E080E090E00E9448
:100A80004F140F900F900F900F908C2FCF910F91CC
:100A9000EF90DF90CF90BF90AF909F908F90089590
:100AA0008F929F92AF92BF92CF92DF92EF920F936D
:100AB0001F921F923F932F934A015A01C12CD12CB0
:100AC000EE24E39400E026E040E80E9481030F90CA
:100AD0000F900F900F900F91EF90DF90CF90BF90FD
:100AE000AF909F908F9008958F929F92AF92BF92F8
:100AF000CF92DF92EF920F931F931F921F921F933B
:100B00000F934A015A01C12CD12C32E0E32E022F5F
:100B100026E040E80E9481030F900F900F900F9005
:100B20001F910F91EF90DF90CF90BF90AF909F906B
:100B30008F9008958F929F92AF92BF92CF92DF9243
:100B4000EF920F93C42ED12C1F921F921F921F92CF
:100B5000812C912CA12CB12CE12C062F21E043E219
:100B6000FC016285828193810E9481030F900F9026
:100B70000F900F900F91EF90DF90CF90BF90AF90BC
:100B80009F908F9008958F929F92AF92BF92CF9235
:100B9000DF92EF920F93C62ED12C1F921F925F937C
:100BA0004F9324E0822E912C34E0A32EB12CE12C23
:100BB00000E020E043EAFC016285828193810E948B
:100BC00081030F900F900F900F900F91EF90DF9097
:100BD000CF90BF90AF909F908F9008958F929F92EB
:100BE000AF92BF92CF92DF92EF920F93C42ED12C8F
:100BF0001F921F921F921F92812C912CA12CB12C1D
:100C0000E12C062F23E043E2FC016285828193817F
:100C10000E9481030F900F900F900F900F91EF9013
:100C2000DF90CF90BF90AF909F908F900895CF921C
:100C3000DF92EF92FF920F931F93CF938C01C62FF9
:100C40007A01FA0180819181A281B3818130F3E040
:100C50009F07F1E0AF07B105E1F060F48115E1E035
:100C60009E07AE07B10569F181309140A140B10501
:100C700081F08DC0833021E0920720E1A207B10509
:100C800009F466C083309340A041B10509F460C007
:100C90007EC08091410481117AC04C2F61E1C8016E
:100CA0000E949A054C2F60E1C8010E949A054C2FC2
:100CB00064E0C8010E94EE0581E08093410481EB6D
:100CC00067C0462F61E1C8010E949A054C2F60E180
:100CD000C8010E949A0510924104D8011A968C917D
:100CE0001A978770C770880F880F880FC82B09F470
:100CF0004EC01296ED90FC9013976701B6E5CB0EAF
:100D0000D11C00E010E0F601819191916F010097F4
:100D1000C9F0DC01ED91FC910084F185E02D09958D
:100D2000C81310C0F801BB96EE0FFF1FEE0DFF1D9C
:100D300080819181DC01ED91FC910480F581E02DB1
:100D4000099525C00F5F1F4F00311105E1F61FC047
:100D50004C2F64E1C8010E949A054C2F60E1C80144
:100D60000E949A0564E170E080E090E00E944F14D8
:100D7000F8016285D70111962C9126952170677034
:100D80004C2F828193810E94FD0B1092410480E0E0
:100D9000CF911F910F91FF90EF90DF90CF9008952A
:100DA00088EF0E940E0B807C8034A1F018F4882319
:100DB00001F10895803819F0803CB9F0089588ED6C
:100DC0000E940E0B81FD0BC069EC88ED0E943E0B6A
:100DD00082E00CC088ED0E940E0B81FDF5CF6BEC1C
:100DE00088ED0E943E0B83E001C081E080930C03FC
:100DF000089561ED88ED0E943E0B10920C0308955A
:100E0000FC01918D228D892F90E0805C9F4F821B89
:100E100091098F739927089580E090E0892B29F03C
:100E20000E94D61381110C9400000895CF93DF9394
:100E3000EC018A819B81DC01ED91FC910480F581BC
:100E4000E02D6A8509958A85813439F4EA81FB8130
:100E5000EA58FF4F8081846080831A861B861C8637
:100E60001D861E861F86188A80E0DF91CF91089527
:100E700081E0693009F080E00895FC0182850895E1
:100E80000F931F93CF93DF93EC018A818170F80158
:100E90009081292F2170821771F0E881F98190FFEC
:100EA00004C00680F781E02D03C00480F581E02DA9
:100EB000B801CE0109958A8186958170F8019081EB
:100EC00091FB222720F9821771F0E881F98191FFC7
:100ED00004C00284F385E02D03C00084F185E02D79
:100EE000B801CE0109958A8182FB882780F9F80133
:100EF000908192FB222720F9821771F0E881F98115
:100F000092FF04C00684F785E02D03C00484F585B4
:100F1000E02DB801CE010995F8018181811103C04E
:100F20008281882341F0E881F9810280F381E02DFC
:100F3000B801CE010995F80180818A83DF91CF91B4
:100F40001F910F910895CF93DF93FC01862F807836
:100F5000A9F4283008F04DC0442321F09581973042
:100F600009F447C0EF01A1E0B0E09D85992341F06D
:100F700011962596A031B105C1F73BC080E039C07C
:100F800061111CC085E08A9FE0018B9FD00D112468
:100F9000CE0FDF1F442331F081E4888785818F5F86
:100FA000858302C081E0888725E02A9FC0012B9FAE
:100FB000900D1124E80FF91F80851BC06770660F24
:100FC000660F660F442341F0606485818F5F8583DF
:100FD0008770687F682B03C02770687B622B25E0D1
:100FE0002A9FC0012B9F900D1124E80FF91F6087E5
:100FF000862FDF91CF910895611102C00696089562
:10100000FC0121E03585631739F02F5F35962031DB
:10101000C9F780E090E00895069635E0239F800DA3
:10102000911D11240895CF92DF92FF920F931F9389
:10103000CF93DF9300D000D0CDB7DEB78C01F62E72
:1010400019821A821B821C82462F61E10E949A0536
:101050004F2D60E1C8010E949A054F2D64E0C80140
:101060000E94EE0583E0C82ED12CAE014F5F5F4F8A
:101070006F2DC8010E94C3058823E1F04F2D64E164
:10108000C8010E949A054F2D60E1C8010E949A058F
:1010900064E170E080E090E00E944F140F900F90A8
:1010A0000F900F90DF91CF911F910F91FF90DF90E4
:1010B000CF90089589819A81AB81BC819D7F8330D7
:1010C0009140A041B105D1F264E670E080E090E08B
:1010D0000E944F1481E0C81AD10839F6CFCFEF92A1
:1010E000FF920F931F93CF93DF93CDB7DEB72E9769
:1010F0000FB6F894DEBF0FBECDBFFC0120892111D1
:1011000002C010E07EC07C010E948914F7010485B2
:10111000158526853785DC01CB01801B910BA20B41
:10112000B30BB7FDEECF81E090E09E878D878E01F7
:101130000F5F1F4F9E01235F3F4F41E06285828119
:1011400093810E944A0381114CC002E011E0898121
:101150008023C1F019861A861B861C86AE01475F64
:101160005F4F612FC7010E94C30581110BC0AE0103
:10117000475F5F4F612FC7010E941706813B99F1BE
:1011800081112FC0000F1F5F183009F711E0F70120
:101190008385811740F119861A861B861C86AE014D
:1011A000475F5F4F612FC7010E94C305811117C0C0
:1011B00089859A85877091708130914081F48B8503
:1011C0009C8581609C878B87AE01475F5F4F612F55
:1011D000C7010E941706813B31F0811102C01F5FD9
:1011E000D6CF182F01C010E00E948914DC01CB017A
:1011F0008C599F4FAF4FBF4FF70184879587A687C4
:10120000B787812F2E960FB6F894DEBF0FBECDBFE5
:10121000DF91CF911F910F91FF90EF9008953F9232
:101220004F925F926F927F928F929F92AF92BF92F6
:10123000CF92DF92EF92FF920F931F93CF93DF93A2
:10124000CDB7DEB7E8970FB6F894DEBF0FBECDBFBF
:10125000DC011A963C91311117C1822E342E962E44
:101260003C01FC01E280F380D701ED91FC910190FB
:10127000F081E02D60E0C70109958C01009709F429
:1012800012C1FC01C080D180C114D10409F4FEC098
:101290005301F4E0AF0EB11CDC011196BC92AE928A
:1012A00014968C92FE0131962F019F0148E050E088
:1012B00060E0D30112968D919C9113970E94500586
:1012C000F80114828111E8C08D81893009F0E0C0F5
:1012D0008980D701ED91FC910280F381E02D232DCF
:1012E00041E0692DC7010995F3018287882309F43C
:1012F000D1C098859583682F828193810E942005B3
:10130000982E882391F0D801CD92DC92D701ED91EF
:10131000FC910480F581E02DD3011A966C91C701F0
:101320000995F3011286192DBFC0482D413208F0EE
:1013300040E2D801CD92DC92411104C0A114B10465
:1013400061F4AFC050E09201F30162858281938124
:101350000E9450058111A3C0F1CFD3011A961C91B0
:101360001A97612F12968D919C9113970E94FC07FA
:10137000FC01892B09F497C01283B182A08282E01C
:1013800083831F921F925F924F9288E0882E912C48
:1013900098E0A92EB12CC12CD12C29E2E22E00E03C
:1013A00026E040EAF3016285828193810E948103F5
:1013B000182F0F900F900F900F90811175C08B8197
:1013C000D3011B968C931B97820120E048E050E0EC
:1013D0001A966C911A9712968D919C9113970E9470
:1013E000740581115CC04B815C8120E0F301628552
:1013F000828193810E947405811151C0498150E01E
:101400008E010F5D1F4F20E0D3011A966C911A9741
:1014100012968D919C9113970E94740581113FC083
:101420001F921F921F921F92812C912CA12CB12CE4
:10143000E12C0E8129E040E0F301628582819381F5
:101440000E948103182F0F900F900F900F90811121
:101450002BC001E0D3011B968C91801738F0402FF0
:1014600068E0C3010E94EE050F5FF4CFD30112962E
:10147000ED91FC911397EA58FF4F8081846080833F
:1014800081E050968C9310C019ED0EC017ED0CC082
:1014900011ED0AC014ED08C0F801D182C082182FE6
:1014A00003C018ED01C016ED812FE8960FB6F89431
:1014B000DEBF0FBECDBFDF91CF911F910F91FF9087
:1014C000EF90DF90CF90BF90AF909F908F907F90E4
:1014D0006F905F904F903F900895FC01613499F4B4
:1014E0009C01255B3F4F61E0AC014E5F5F4F15866D
:1014F00066871786548743873596E217F307B9F74F
:10150000FC011582089521E03585631729F02F5FCE
:1015100035962031C9F70895622F0C94AC00FC0178
:10152000848DDF01A80FB11DA35ABF4F2C91848D6C
:1015300090E001968F739927848FA689B7892C93A1
:10154000A089B1898C91837080648C93938D848DF4
:10155000981306C00288F389E02D80818F7D8083F7
:101560000895CF93DF93FC01EB0180819181892B5A
:1015700021F18281882319F1DA012D913C91232BED
:10158000E1F0A881B9819C91A381B0E0A81BB109C9
:1015900020813181A20FB31F9C938281815082836D
:1015A000DA018D919C91119701978D939C9388817D
:1015B0009981019699838883DCCF80E003C0838181
:1015C000828381E0DF91CF9108950F931F93CF9392
:1015D000DF93182F062FEA0180E591E00E94EE12BA
:1015E0000E94811212601EBDFE01802F882339F0F7
:1015F0000DB407FEFDCF91919EBD8150F7CFC00F76
:10160000D11D0DB407FEFDCF0E9483120E94E61289
:10161000CE01DF91CF911F910F910895CF93C82FE5
:1016200080E591E00E94EE120E9481128C2F0E94B0
:10163000E71280E00E94E712C82F0E9483120E94E6
:10164000E6128C2FCF910895FC0120812EBD9B01C5
:101650002150310941F051810DB407FEFDCF4EB547
:101660005EBD4193F5CF61507109FC01E60FF71F94
:101670000DB407FEFDCF8EB5808308950F931F93A1
:10168000CF93DF9300D0CDB7DEB7182F062F80E5BC
:1016900091E00E94EE120E948112126019830A8367
:1016A00062E070E0CE0101960E94240B0E9483123A
:1016B0000E94E6120F900F90DF91CF911F910F9132
:1016C00008959F92AF92BF92CF92DF92EF92FF92D6
:1016D0000F931F93CF93DF937C01D42F122F902E63
:1016E00000E06C01C60ED11CC60ED11C86E5C80EEA
:1016F000D11CA42EB12CABE2AA0EB11CAA0CBB1CAF
:10170000AE0CBF1CF60180819181DC01ED91FC9152
:101710000280F381E02D292D412F6D2F0995803E08
:10172000C9F4D1110BC061E088EE0E943E0B66E661
:1017300070E080E090E00E944F1414C0F5018081B9
:101740009181DC01ED91FC910284F385E02D612F04
:10175000099508C08D3021F4033008F03FC014C053
:1017600081113FC0F60180819181DC01ED91FC91F6
:101770000190F081E02D292D412F6D2F0995C82F63
:101780008D3051F4033050F464E670E080E090E076
:101790000E944F140F5FB6CF882311F1D1110BC0F7
:1017A00061E088EE0E943E0B66E670E080E090E02B
:1017B0000E944F1411C0ED2FF0E0BB96EE0FFF1FFB
:1017C000EE0DFF1D80819181DC01ED91FC91028481
:1017D000F385E02D612F09958C2F03C08DE001C0AA
:1017E00080E0DF91CF911F910F91FF90EF90DF90FC
:1017F000CF90BF90AF909F9008952F923F924F92BD
:101800005F926F927F928F929F92AF92BF92CF9290
:10181000DF92EF92FF920F931F93CF93DF93CDB799
:10182000DEB766970FB6F894DEBF0FBECDBF1B8A3A
:1018300038E03C8B3CE33D8B8A3F3FEF930711F44C
:1018400086EDE7C0122F442E562E7C01DC01169641
:10185000CD90DC901797CE01439617969C938E936C
:1018600016971A962C939E012F5F3F4F42E150E04E
:1018700060E0C7010E945005F701D782C68281113E
:10188000C8C089849A846B847C84FD81FE8B2E8001
:10189000670136E5C30ED11C5601312CD5018D915F
:1018A0009C910097D9F1DC01ED91FC910084F185C8
:1018B000E02D0995811132C0F50180819181DC0113
:1018C000ED91FC910088F189E02D622D0995882326
:1018D00029F1F50180819181DC01ED91FC91048475
:1018E000F585E02DA301B401099581110DC0F50125
:1018F00080819181DC01ED91FC910684F785E02DDA
:101900006E890995882351F0012F242D452D632DD3
:10191000C7010E94610B813D09F07BC03394B2E0A6
:10192000AB0EB11CE0E13E12B9CFB12CF6018081C3
:1019300091810097E1F1DC01ED91FC910084F1854A
:10194000E02D0995811133C0F60180819181DC0180
:10195000ED91FC910088F189E02D622D0995882395
:10196000D9F0F60180819181DC01ED91FC91048434
:10197000F585E02DA301B4010995811118C0F60188
:1019800080819181DC01ED91FC910684F785E02D49
:101990006E89099581110BC0012F242D452D6B2DCA
:1019A000C7010E94610B982F977F913D91F5B394E9
:1019B000F2E0CF0ED11C30E1B312B8CFF70186812F
:1019C0009781892B09F11287242D40E0652DC701ED
:1019D0000E94A307D82E8823C9F0682FC7010E9450
:1019E000FC07009709F42CCFDC0114961C936D2D95
:1019F000C7010E942005182F882351F06D2DC701C3
:101A00000E946D0A812F05C087ED03C084ED01C0DF
:101A100080E066960FB6F894DEBF0FBECDBFDF91B3
:101A2000CF911F910F91FF90EF90DF90CF90BF90DB
:101A3000AF909F908F907F906F905F904F903F906E
:101A40002F90089580E090E008950895EF92FF921E
:101A5000CF93DF93DC01E70152968C91529782304D
:101A600049F11F966C931F9750964C9350979B810A
:101A700093709330F9F49A8197FF1CC09E81589619
:101A80002C915897291718F458969C935897E82F3B
:101A9000F0E09F01220F331FE20FF31FEA0FFB1F3D
:101AA0009A819F7097839C81908794E091878F5F44
:101AB00052968C93DF91CF91FF90EF900895EF9223
:101AC000FF920F9302970E94260D0F91FF90EF90C7
:101AD0000895FC0187890895860F911D860F911D39
:101AE000FC0185859685089581E0623009F080E0EB
:101AF000089581E0633009F080E00895FC0186815B
:101B00000895CF93DF93EC018C819D81DC01ED91F1
:101B1000FC910480F581E02D6E8109951F86188A5D
:101B200081E08A8B1E821B8A1C8A1D8A1E8A1F8A5C
:101B300080E0DF91CF910895860F911D860F911D52
:101B4000FC015687458781E00895089580E0089557
:101B500080E090E00895089581E0089580E0089580
:101B600080E00895089580E0089580E008953F9210
:101B70004F925F926F927F928F929F92AF92BF929D
:101B8000CF92DF92EF92FF920F931F93CF93DF9349
:101B900000D000D0CDB7DEB76C017A8369835C8357
:101BA0004B834C0180E1880E911C5601A7E0AA0EE0
:101BB000B11C11E084E0482E3601B2E16B0E711CBD
:101BC00093E0392E22E0522E89819A81892B09F4E3
:101BD000FBC0F60180A1823059F128F4882341F03E
:101BE000813071F0F1CF833039F18430C1F1ECCF25
:101BF000548285819681908787835286518610A36F
:101C0000AE014F5F5F4FBE016D5F7F4FC5010E9408
:101C1000B10A882309F4D8C0D6011596ED91FC913C
:101C20001697808191968C939197818192968C934F
:101C3000F6017682658230A2D60192968C919297B7
:101C4000843011F493961C92F60181A18250848312
:101C500025813681308727838287818740A2D601FC
:101C600092968C918430B1F0853009F442C0823074
:101C700009F06EC0AE014F5F5F4FBE016D5F7F4FD9
:101C8000C5010E94B10A882309F49EC0F601858926
:101C900084A392C0AE014F5F5F4FBE016D5F7F4F67
:101CA000C5010E94B10A882309F48EC0D601559659
:101CB0008C915597833009F07FC056968C9156973A
:101CC000813009F079C098969C91989757968C919D
:101CD000992321F0882309F46FC003C0823009F0F2
:101CE0006BC0F60113A3928996A3938997A385A34A
:101CF00063C0AE014F5F5F4FBE016D5F7F4FC50197
:101D00000E94B10A882309F45FC0D60193968C9192
:101D10009397882309F450C012968D919C91139744
:101D2000009709F449C0DC01ED91FC910190F0812C
:101D3000E02D7401D60195960C91959797962C916C
:101D4000979796964C91969794966C91099534C076
:101D5000F6018585882319F0813039F028C081A1EA
:101D600090E0029797878687158729813A818B8132
:101D70009C81782F692FF6014685578541155105BD
:101D800081F001962115310529F47B836C831A8239
:101D900019820DC04150510957874687215031099A
:101DA000E8CF9C838B833A832983F6011586F6015D
:101DB00086859785892B41F4D60116969C928E9242
:101DC000159790961C9200CF0F900F900F900F9048
:101DD000DF91CF911F910F91FF90EF90DF90CF9007
:101DE000BF90AF909F908F907F906F905F904F903B
:101DF0003F900895DF92EF92FF920F931F93CF933E
:101E0000DF93CDB7DEB762970FB6F894DEBF0FBE93
:101E1000CDBFDC0157962C91222381F07C010E94DA
:101E20008914F7010389148925893689DC01CB01DE
:101E3000801B910BA20BB30BB7FF02C0D12C39C092
:101E4000838590E09A8B898B8E010F5F1F4F9E01D7
:101E50002F5E3F4F42856681848195810E944A03AF
:101E6000D82E811118C029893A892330310598F07C
:101E7000D7011D968D919C911E97009761F0DC0112
:101E8000ED91FC910190F081E02D8E010F5F1F4FCD
:101E900040E0B70109950E948914F701208DDC010B
:101EA000CB01820F911DA11DB11D838B948BA58B3E
:101EB000B68B8D2D62960FB6F894DEBF0FBECDBFE8
:101EC000DF91CF911F910F91FF90EF90DF900895D8
:101ED0002F923F924F925F926F927F928F929F923A
:101EE000AF92BF92CF92DF92EF92FF920F931F9328
:101EF000CF93DF93CDB7DEB7C458D1090FB6F894AE
:101F0000DEBF0FBECDBFDC011696BC91ED96BFAF14
:101F1000ED97B111B8C1D22EB42EC62E3C01FC01F2
:101F200024803580108ED101ED91FC910190F081DB
:101F3000E02D60E0C10109952C01009711F4B6ED88
:101F4000A3C1FC01008111810115110509F4A0C193
:101F50009301295F3F4FEF963FAF2EAFEF9731834D
:101F60002083D4829E0126593F4F48E050E060E034
:101F7000D30114968D919C9115970E945005E82EDF
:101F8000811190C1AB96EFACAB97F2011183008346
:101F9000D101ED91FC910280F381E02D2B2D40E0E9
:101FA0006C2DC1010995F3018683882309F475C15D
:101FB000E2969FADE2979087682F848195810E9479
:101FC0002005182FD101ED91FC91D20114961C929D
:101FD000882371F00480F581E02DD30116966C9171
:101FE000C1010995F3011682ED961FAFED975EC111
:101FF0000190F081E02DD30116966C91C1010995F5
:10200000009709F49CCF4E2D433108F042E1FC01CA
:10201000D48241111AC0EC96FFADEC97CE57DF4F3A
:10202000F883C258D040F12C2E0121E4420E511CFD
:10203000C3010296CD57DF4F99838883C358D040A0
:10204000120190E1290E311C74C050E09E01265906
:102050003F4FD30116966C91169714968D919C91D3
:1020600015970E945005E82E811101C1D4CF2AE7AF
:1020700031E0F20131832083CD57DF4F8881998190
:10208000C358D040938382831482118612861586AA
:102090001786168610A211A212A210A636822582D9
:1020A0003086278234862386D3011696BC91C15888
:1020B000DF4FB883CF57D040F3010480F581E02D86
:1020C000C058DF4FF983E883C058D0408E010F5FBE
:1020D0001F4F2F2D49E050E06B2FCF010E94740558
:1020E000811121C0AB80BC805F924F921F930F93F0
:1020F00040E4842E912CC12CD12C52E0E52E0F2DE2
:1021000026E040E8C158DF4F6881CF57D040C05823
:10211000DF4F88819981C058D0400E9481030F9081
:102120000F900F900F90D30152968C91823041F016
:10213000F394CE57DF4FB881C258D040FB1297CFEF
:10214000F3011289123009F090C0068184819581D3
:10215000EF962EAD3FADEF97232B71F0602F0E94CD
:10216000FC07FC01892B41F00283EF968EAD9FADF9
:10217000EF9791838083138368EE73E080E090E0B3
:102180000E944F141F921F921F921F92812C912C1C
:10219000A12CB12CC12CD12CE12CD3011F960C9178
:1021A0001F9729E040E016966C91169714968D9132
:1021B0009C9115970E948103E82E0F900F900F902D
:1021C0000F90811154C068EE73E080E090E00E94AF
:1021D0004F141F921F921F921F92F301018D2BE04B
:1021E00041E26681848195810E948103E82E0F90EF
:1021F0000F900F900F9081113AC01F921F921F9263
:102200001F9200E02AE041E2D30116966C911697E6
:1022100014968D919C9115970E948103FE01EF5BAE
:10222000FF4F80E891E091838083FF93EF93CE018D
:1022300001969F938F9390E4892E912C20E8A22EF3
:10224000B12C32E2E32E26E041E8F301668184817D
:1022500095810E94810381E0D30157968C930FB63C
:10226000F894DEBF0FBECDBF21C081EDE82ED301B3
:10227000ED91FC910480F581E02DC3010995ED9667
:10228000EFAEED9713C0B9EDED96BFAFED970EC071
:10229000E7EDED96EFAFED9709C0F4EDED96FFAFEA
:1022A000ED9704C0D2010D931C93E1CFED968FAD55
:1022B000ED97CC57DF4F0FB6F894DEBF0FBECDBF02
:1022C000DF91CF911F910F91FF90EF90DF90CF9012
:1022D000BF90AF909F908F907F906F905F904F9046
:1022E0003F902F900895CF93DF93CDB7DEB7A1979E
:1022F0000FB6F894DEBF0FBECDBF9091610481E0B0
:1023000089278093610485E891E00E948C00809188
:10231000610419A2805D88A3CE0180960E948C0082
:1023200082E891E00E948C00A1960FB6F894DEBF7F
:102330000FBECDBFDF91CF91089580EB91E00C945B
:102340009E0088EC91E00E949E0081E080935A04F8
:1023500008958DED91E00E949E0010925A04089518
:1023600084EF91E00E949E0081E0809359040895DB
:1023700088E092E00E949E00109259040895CF9345
:10238000DF93EB012981022E000C330B30935604AE
:102390002093550480915704909158044427552761
:1023A000481B590B2417350774F437FF03C03195C8
:1023B0002195310920935E0410925D048EE192E034
:1023C0000E949E0012C097FD019695958795919564
:1023D000819591092817390744F480915D04882379
:1023E00021F010925E0410925D042091550430910A
:1023F00056048091570490915804821793077CF4F7
:10240000C90137FF03C091958195910980935D04BF
:1024100010925E0483E292E00E949E000FC097FD3E
:102420000196959587958217930744F480915E04F1
:10243000882321F010925D0410925E04809157046D
:102440009091580420915304309154044427552707
:10245000481B590B241735077CF4C90137FF03C00B
:1024600091958195910980935C0410925B0489E2B7
:1024700092E00E949E0012C097FD01969595879567
:102480009195819591092817390744F480915B044F
:10249000882321F010925C0410925B048A81082E3C
:1024A000000C990B9093540480935304209157048B
:1024B00030915804281739077CF497FF03C0919591
:1024C0008195910980935B0410925C048CE292E008
:1024D000DF91CF910C949E0037FF02C02F5F3F4FDA
:1024E000359527952817390744F480915C04882393
:1024F00021F010925C0410925B04DF91CF9108955B
:1025000008952A9808952A9A089560E082E00E942A
:102510009C0160E083E00E949C0160E084E00E94F6
:102520009C0160E085E00E949C0160E086E00E94E2
:102530009C0160E087E00C949C0180915F04811114
:1025400031C080E480937C0080917A008064809325
:102550007A0080917A0086FDFCCF809178002091EE
:10256000790090E0922B66E470E00E942B1ACB0178
:102570000396909358048093570464507109643013
:1025800071052CF0709363046093620406C083E0CD
:1025900090E09093630480936204809162048B5F67
:1025A0008093600480915F04882379F081E090E05B
:1025B000909358048093570482E090E090936304D2
:1025C000809362048FE080936004089508958EBD27
:1025D00000000DB407FEFDCF8EB508958CBD9DBDE6
:1025E00008958F929F92AF92BF92CF92DF92EF9217
:1025F000FF920F931F93CF93DF93862E942E590152
:102600000E9489146B017C0128E8C20E23E1D21ECE
:10261000E11CF11C00E010E0D0E0C0E098280E942E
:102620008914DC01CB018C199D09AE09BF09B7FFE4
:102630002DC0692D80EF0E943E0B0E948914DC01A1
:10264000CB018C199D09AE09BF09B7FF09C088EC01
:102650000E940E0B87FFF1CF60E888EC0E943E0BD2
:1026600088EF0E940E0BC82FCF70C43019F0CE3007
:1026700051F00CC00F5F1F4FA114B10481F20A1575
:102680001B0569F603C0DF5FD33049F68C2FDF915D
:10269000CF911F910F91FF90EF90DF90CF90BF905F
:1026A000AF909F908F9008953FB7F89480916E04FB
:1026B00090916F04A0917004B091710426B5A89B0D
:1026C00005C02F3F19F00196A11DB11D3FBFBA2FC4
:1026D000A92F982F8827820F911DA11DB11DBC0124
:1026E000CD0142E0660F771F881F991F4A95D1F7E9
:1026F0000895CF92DF92EF92FF920F931F93CF93A3
:10270000DF936C017A018B01C0E0D0E0CE15DF05CC
:1027100081F0D8016D918D01D601ED91FC91019070
:10272000F081E02DC6010995892B11F02196EECF9D
:102730007E01C701DF91CF911F910F91FF90EF9024
:10274000DF90CF900895FC01538D448D252F30E00C
:10275000842F90E0821B930B541710F0CF960895AE
:1027600001970895FC01918D828D981761F0828DFB
:10277000DF01A80FB11D5D968C91928D9F5F9F73B5
:10278000928F90E008958FEF9FEF0895FC01918D57
:10279000828D981731F0828DE80FF11D858D90E0C4
:1027A00008958FEF9FEF08950E94401C8DE093E005
:1027B0000E94000721E0892B09F420E0822F089570
:1027C000EF92FF920F931F93CF93DF93EC0181E081
:1027D000888F9B8D8C8D981305C0E889F98980813D
:1027E00085FD26C0F62E0B8D10E00F5F1F4F0F7377
:1027F0001127E02E8C8DE8120CC00FB607FCFACF23
:10280000E889F989808185FFF5CFCE010E948F0A82
:10281000F1CF8B8DFE01E80FF11DE35AFF4FF082DF
:102820009FB7F8940B8FEA89FB89808180620AC088
:102830009FB7F894EE89FF896083E889F9898081E0
:102840008370806480839FBF81E090E0DF91CF91AF
:102850001F910F91FF90EF900895CF93DF93EC01BC
:10286000888D8823C9F0EA89FB89808185FD05C0B0
:10287000A889B9898C9186FD0FC00FB607FCF5CFEA
:10288000808185FFF2CFA889B9898C9185FFEDCF32
:10289000CE010E948F0AE7CFDF91CF9108958F92EA
:1028A0009F92AF92BF92CF92DF92EF92FF926B0115
:1028B0007C010E9454134B015C01C114D104E1045A
:1028C000F104F1F00E945413DC01CB01881999093D
:1028D000AA09BB09883E9340A105B10570F321E028
:1028E000C21AD108E108F10888EE880E83E0981E2C
:1028F000A11CB11CC114D104E104F10419F7DDCF0E
:10290000FF90EF90DF90CF90BF90AF909F908F900F
:1029100008952FB7F89460916A0470916B048091C8
:102920006C0490916D042FBF08951F920F920FB603
:102930000F9211242F933F938F939F93AF93BF9345
:1029400080916A0490916B04A0916C04B0916D0425
:102950003091690423E0230F2D3720F40196A11D47
:10296000B11D05C026E8230F0296A11DB11D2093BD
:10297000690480936A0490936B04A0936C04B093F1
:102980006D0480916E0490916F04A0917004B091D9
:1029900071040196A11DB11D80936E0490936F0484
:1029A000A0937004B0937104BF91AF919F918F91E8
:1029B0003F912F910F900FBE0F901F901895CF93BE
:1029C000DF93EC0188819981009711F00E94F11A40
:1029D000198218821D821C821B821A82DF91CF917C
:1029E00008950F931F93CF93DF93EC018881998112
:1029F000009729F02A813B812617370788F48B013D
:102A00006F5F7F4F0E947A1B009761F099838883E4
:102A10001B830A832C813D81232B11F4FC0110823E
:102A200081E001C080E0DF91CF911F910F91089567
:102A30001F920F920FB60F9211242F933F934F9333
:102A40005F936F937F938F939F93AF93BF93EF9316
:102A5000FF938DE093E00E948F0AFF91EF91BF9169
:102A6000AF919F918F917F916F915F914F913F9126
:102A70002F910F900FBE0F901F9018951F920F92DD
:102A80000FB60F9211242F938F939F93EF93FF9381
:102A9000E0911D03F0911E038081E0912303F091EA
:102AA000240382FD12C09081809126038F5F8F7373
:102AB00020912703821751F0E0912603F0E0E35FB5
:102AC000FC4F958F8093260301C08081FF91EF9189
:102AD0009F918F912F910F900FBE0F901F9018957F
:102AE0001092100310920F0388EE93E0A0E0B0E084
:102AF0008093110390931203A0931303B0931403D4
:102B00008AE091E090930E0380930D0385EC90E0B2
:102B100090931A038093190384EC90E090931C0324
:102B200080931B0380EC90E090931E0380931D0321
:102B300081EC90E09093200380931F0382EC90E05F
:102B4000909322038093210386EC90E090932403DA
:102B500080932303109226031092270310922803D8
:102B60001092290386E591E09093CB038093CA03EA
:102B70001092CF031092D20381E08093D30310927E
:102B8000D4038CEC93E09093D1038093D003109204
:102B9000CC0388E08093CD038CE38093CE03EAECF2
:102BA000F3E021E08CEC93E0158626871786948766
:102BB0008387359634E0E531F307B1F7109240048E
:102BC00081E18093AA0380E491E090934304809391
:102BD00042048AEC93E0909345048093440410925D
:102BE0004C0410924D0410924E0410924F04109217
:102BF000500410925104109252041092460488E03E
:102C0000809347049CE39093480491E09093490497
:102C100080934A0484E080934B04A0E2B4E0FD0179
:102C200080E090E021913191232B51F4880F991F7E
:102C3000FC01E05EFB4F82E494E09183808304C05A
:102C400001968031910571F78AEC93E09093B5037A
:102C50008093B4038CE191E09093B1038093B0032F
:102C60008AE391E09093B3038093B2031092C3037D
:102C70001092C4031092C5031092C6031092C703AA
:102C80001092C9031092B70388E08093B8038CE3D5
:102C90008093B9031092BA031092BB0384E080932F
:102CA000BC0381E08093C2031092C1031092BF0362
:102CB0001092BE031092BD0380E090E02D913D91F3
:102CC000232B51F4880F991FFC01E05EFB4F80EB32
:102CD00093E09183808304C001968031910571F760
:102CE00080E691E09093AC038093AB030895CF937B
:102CF000DF93CDB7DEB768970FB6F894DEBF0FBE8F
:102D0000CDBF789484B5826084BD84B5816084BD74
:102D100085B5826085BD85B5816085BD80916E0079
:102D2000816080936E0010928100809181008260AA
:102D300080938100809181008160809381008091E7
:102D400080008160809380008091B10084608093D6
:102D5000B1008091B00081608093B00080917A00D2
:102D6000846080937A0080917A00826080937A00F8
:102D700080917A00816080937A0080917A008068E7
:102D800080937A001092C100E0911D03F0911E0320
:102D900082E08083E0911903F0911A031082E091A0
:102DA0001B03F0911C0380E1808310922503E091C6
:102DB0002103F091220386E08083E0911F03F091CC
:102DC0002003808180618083E0911F03F0912003C4
:102DD000808188608083E0911F03F09120038081CF
:102DE00080688083E0911F03F091200380818F7DB4
:102DF000808381E392E00E949E008AE492E00E9438
:102E00009E008DE592E00E948C0061E0CE0101966B
:102E10000E94280160E0CE0107960E94280161E02F
:102E2000CE0143960E9428011E861D86188A1F86A1
:102E30001A8A198A0B891C8901151105A9F0EF88D6
:102E4000F88CB701CE010D960E94F114811105C0D6
:102E5000CE010D960E94DF1407C0FA8AE98AB801F4
:102E60008D859E850E94551C09891A890F5F1F4F09
:102E7000B801CE010D960E94F114882309F485C291
:102E80002D853E8589899A8960EE72E0820F931FB5
:102E90000E94551C1A8B098BBE01695F7F4FCE01C2
:102EA0000D960E94F500BE016F5F7F4F0E94F500F6
:102EB000DC0114964D915C9115976D917C918DE09C
:102EC00093E00E94791382E891E00E948C008D8546
:102ED0009E850E94F11A8B899C890E94F11A8F812C
:102EE00098850E94F11A89819A810E94F11A229A8A
:102EF0000E9483121FB7F89480916404811127C047
:102F0000E6E8F0E08491EAE9F0E09491E82FF0E05F
:102F1000EE0FFF1FE859FF4FA591B491EC91E92303
:102F200021F461E08AE00E949C0161E08AE00E9455
:102F3000CB018CB580618CBD8CB580648CBD61E0AB
:102F40008DE00E94CB0161E08BE00E94CB0180917B
:102F500064048F5F809364041FBF229A0E948312CF
:102F6000219868E188E80E943E0B60E288E70E94B1
:102F70003E0B60E088E70E943E0B00E010E088E630
:102F80000E940E0B0F5F1F4F80FDE1C10F3FBFEF8F
:102F90001B07A9F780E792E00E949E008AE892E072
:102FA0000E949E0089EB92E00E949E0082EE92E0D9
:102FB0000E949E0068EC70E080E090E00E944F1458
:102FC0008BEA93E09093BE038093BD0361E082E0BF
:102FD0000E94CB0161E083E00E94CB0161E084E0CC
:102FE0000E94CB0161E085E00E94CB0161E086E0B8
:102FF0000E94CB0161E087E00E94CB0161E08FE09D
:103000000E94CB0162E088E00E94CB010E94851201
:103010000E949D1260E08FE00E949C0190E4C92E06
:1030200094E0D92E20E5422E30E9332E40EA242EBA
:103030005CEA652E50E0752E68E9A62E60E0B62E9B
:1030400074E8872E70E0972E19990DC088EC0E94C5
:103050000E0B85FF04C00E94D00660E201C060E054
:1030600088EC0E943E0B80910C03813041F058F0B7
:10307000823091F0833051F5552453940EC0E3E132
:10308000E093AA0323C08091AA03807F8031F1F0EE
:10309000F1E1F093AA031AC0512C8091AA03807F1A
:1030A0008031A9F40E948914DC01CB0188539F4F21
:1030B000AF4FBF4F8093650490936604A09367045D
:1030C000B093680480E28093AA0301C0512C00E20F
:1030D00014E07801D7018D919D917D01009739F021
:1030E000DC01ED91FC910680F781E02D0995CE146D
:1030F000DF0481F78091AA03803409F445C050F4BD
:10310000803229F18033C1F1813109F08AC01092F7
:1031100040040AC0813509F45FC0803809F471C0E9
:10312000803509F07EC040C0F801819191918F01F6
:10313000009739F0DC01ED91FC910480F581E02DE0
:103140000995B4E000341B0779F782E11AC00E94A8
:1031500089140091650410916604209167043091F0
:103160006804DC01CB01801B910BA20BB30BB7FDF4
:1031700058C080E38093AA0361E088EE0E943E0B72
:1031800080E48093AA034DC088EE0E940E0B80FD60
:1031900048C088ED0E940E0B682F686088ED0E9481
:1031A0003E0B4092AA033DC088EC0E940E0B86FFA6
:1031B00038C081E58093AA030E948914DC01CB0109
:1031C0004496A11DB11D8093650490936604A0935D
:1031D0006704B093680425C00E94891400916504B7
:1031E000109166042091670430916804DC01CB01E2
:1031F000801B910BA20BB30BB7FD13C080E880932B
:10320000AA03252D40E060E08AEC93E00E94FD0BCC
:10321000882329F0823D29F02092AA0302C030922F
:10322000AA0310915E04112359F061E086E00E9428
:103230009C0180916104811103C0115010935E04C0
:1032400010915D04112359F061E087E00E949C0118
:1032500080916104811103C0115010935D0410919D
:103260005C04112359F061E084E00E949C0180918C
:103270006104811103C0115010935C0410915B0430
:10328000112359F061E085E00E949C018091610466
:10329000811103C0115010935B0480915A0488235C
:1032A00021F061E082E00E949C0180915904882312
:1032B00021F061E083E00E949C01609162047091C2
:1032C0006304072E000C880B990B0E944F14809109
:1032D0006104882339F06091600470E080E090E040
:1032E0000E944F140E948512F3018491F5011491FC
:1032F000F40104910023A1F081110E947301E02FD9
:10330000F0E0EE0FFF1FE854FF4FA591B4918C91B0
:10331000182381E090E011F480E090E0892B91F493
:1033200062EC71E080E090E00E944F1480915F04B5
:10333000F1E08F2780935F04882329F161E08FE01B
:103340000E949C010E949D120E940C077DCE61ECA0
:1033500088ED0E943E0B60E680ED0E943E0B64E02B
:1033600088EE0E943E0B88EE0E940E0B82FFFBCF80
:103370000E94D00660E288EC0E943E0B61E080E88B
:103380000E943E0B17CE60E0DACFCE010D960E9470
:10339000DF1482CDBB27FB015527AA27880F991F71
:1033A000AA1FA41710F0A41B83955051B9F7A05D74
:1033B000AA3308F0A95DA193009779F7B111B193F1
:1033C0001192CB010C94E419DC01FC01672F71917F
:1033D0007723E1F7329704C07C916D9370836291FB
:1033E000AE17BF07C8F308952F923F924F925F9296
:1033F0006F927F928F929F92AF92BF92CF92DF9205
:10340000EF92FF920F931F93CF93DF93CDB7DEB769
:10341000CA1BDB0B0FB6F894DEBF0FBECDBF0994FD
:103420002A88398848885F846E847D848C849B8454
:10343000AA84B984C884DF80EE80FD800C811B8162
:10344000AA81B981CE0FD11D0FB6F894DEBF0FBE91
:10345000CDBFED01089597FB072E16F4009407D019
:1034600077FD09D00E943F1A07FC05D03EF49095E5
:1034700081959F4F0895709561957F4F0895AA1B80
:10348000BB1B51E107C0AA1FBB1FA617B70710F04F
:10349000A61BB70B881F991F5A95A9F78095909581
:1034A000BC01CD010895EE0FFF1F0590F491E02DB2
:1034B00009940F931F93CF93DF938230910510F4FB
:1034C00082E090E0E0917404F091750420E030E037
:1034D000A0E0B0E0309719F1408151810281138161
:1034E00048175907C8F08417950769F4109731F009
:1034F00012960C93129713961C9327C00093740492
:103500001093750422C02115310519F04217530795
:1035100018F49A01BD01EF01DF01F801DBCF21159D
:103520003105F9F0281B390B2430310580F48A81EC
:103530009B816115710521F0FB019383828304C097
:103540009093750480937404FE01329644C0FE018A
:10355000E20FF31F8193919322503109398328831D
:103560003AC02091720430917304232B41F42091CE
:10357000020130910301309373042093720420916F
:103580000001309101012115310541F42DB73EB7FD
:103590004091040150910501241B350BE091720408
:1035A000F0917304E217F307A0F42E1B3F0B2817CA
:1035B000390778F0AC014E5F5F4F2417350748F0AC
:1035C0004E0F5F1F50937304409372048193919345
:1035D00002C0E0E0F0E0CF01DF91CF911F910F91A9
:1035E0000895CF93DF93009709F481C0FC013297CF
:1035F00013821282A0917404B0917504109781F423
:1036000020813181820F931F2091720430917304C5
:103610002817390751F5F0937304E093720467C0DB
:10362000ED0120E030E0CE17DF0740F44A815B81F6
:103630009E0141155105F1F0EA01F5CFD383C28314
:1036400040815181840F951FC817D90759F488818B
:103650009981840F951F0296918380838A819B8133
:10366000938382832115310529F4F0937504E09347
:1036700074043DC0E901FB83EA8349915991C40F69
:10368000D51FEC17FD0761F480819181840F951F90
:103690000296E90199838883828193819B838A833F
:1036A000E0E0F0E012968D919C911397009719F04D
:1036B000FD01DC01F7CF8D919C9111979D012E5F4B
:1036C0003F4F820F931F209172043091730428178B
:1036D000390769F4309729F4109275041092740434
:1036E00002C013821282B0937304A0937204DF911C
:1036F000CF910895A0E0B0E0E0E8FBE10C94F81968
:10370000EC01009721F4CB010E94591AB4C0FC01CE
:10371000E60FF71F9C0122503109E217F30708F466
:10372000A8C0D9010D911C91119706171707B0F089
:103730000530110508F49BC0C80104978617970748
:1037400008F495C002501109061B170B0193119341
:103750006D937C93CF010E94F11A89C05B01A01A7E
:10376000B10A4C01800E911EA0917404B0917504B1
:10377000612C712CE12CF12C109709F446C08D912D
:103780009C911197A815B905B1F56C0142E0C40EE2
:10379000D11CCA14DB0478F14C018A189B0864011F
:1037A00042E0C40ED11C1296BC9012971396AC91B5
:1037B000B5E0CB16D10440F0B282A383918280821F
:1037C000D9016D937C9309C00E5F1F4F800F911F2D
:1037D000F90191838083EB2DFA2FE114F10431F08C
:1037E000D7011396FC93EE93129741C0F0937504A2
:1037F000E09374043CC06816790608F43C017D012E
:1038000012960D90BC91A02DB7CF8091720490912B
:10381000730488169906E1F466167706C8F4809159
:10382000000190910101009741F48DB79EB740913E
:10383000040150910501841B950BE817F907C8F4A2
:10384000F0937304E0937204F901718360830FC0F5
:10385000CB010E94591A7C01009759F0A801BE01C2
:103860000E94451CCE010E94F11AC70104C0CE017E
:1038700002C080E090E0CDB7DEB7EEE00C94141A01
:1038800081E090E0F8940C945C1CFB01DC0102C028
:1038900001900D9241505040D8F70895DC0101C0CD
:1038A0006D9341505040E0F70895FB01DC01019019
:0C38B0000D920020E1F70895F894FFCF7E
:1038BC0000007604800000000000E0137913A313CD
:1038CC002D140007B213C61300000000680FB50DCD
:1038DC00810DFA0E7E0DB20DB00D790D740D6C0DBF
:1038EC009C0D690D260DFEFF00005F0D0000000011
:1038FC000F09B50D16076F083D071308B00D3807F3
:10390C00AC0D00000000FC07A3076D0A00000000CE
:10391C004007BF11B811B011A911A1119D1173115C
:10392C0000000000D41300000000B70D00000000E0
:10393C00250D0D0A004D6964646C65204275747424
:10394C006F6E2050726573736564202D20686F6CE8
:10395C0064206D6F646520746F67676C656420000C
:10396C004D6964646C6520427574746F6E20556E7D
:10397C007072657373656400526967687420427570
:10398C0074746F6E2050726573736564005269674E
:10399C00687420427574746F6E20556E7072657306
:1039AC00736564004C65667420427574746F6E2088
:1039BC0070726573736564004C656674204275742F
:1039CC00746F6E20556E70726573736564004C6510
:1039DC00667400526967687400557000446F776EA6
:1039EC00004144414D20555342204D6F7573652065
:1039FC00496E7465726661636500202020204279EF
:103A0C003A204A6F686E204C756E64790020426FC4
:103A1C006F74696E673A2056657273696F6E200019
:103A2C004552524F523A204F534320646964206EE2
:103A3C006F742073746172742E00566572696679A6
:103A4C0020626F746820696E70757420332E335643
:103A5C0020616E642035562070616473206172653C
:103A6C002062726964676564006F6E205553422052
:103A7C00686F737420736869656C64206E65787404
:103A8C0020746F20706F7765722068656164657251
:103A9C002E00566572696679203556207061642057
:103AAC006973206272696467656420666F72205660
:0C3ABC0042555320706F7765722E000099
:00000001FF
